:020000040800F2
:10000000980E0020E5020008ED020008EF0200084B
:1000100000000000000000000000000000000000E0
:10002000000000000000000000000000F1010008D6
:10003000000000000000000085020008D102000856
:10004000F702000800000000F7020008F7020008AD
:10005000F7020008F7020008F7020008F70200089C
:1000600000000000990F0008F7020008F7020008DE
:10007000B10D0008F7020008F702000800000000B8
:10008000F70200080000000000000000F70200086E
:1000900000000000F7020008F7020008F70200085D
:1000A00000000000F702000800000000F70200084E
:1000B00000F002F800F042F80CA030C8083824180C
:1000C0002D18A246671EAB4654465D46AC4201D190
:1000D00000F034F87E460F3E0FCCB6460126334280
:1000E00000D0FB1AA246AB463343184788320000C3
:1000F000A8320000103A02D378C878C1FAD8520763
:1001000001D330C830C101D504680C6070470000CD
:100110000023002400250026103A01D378C1FBD823
:10012000520700D330C100D50B6070471FB500984F
:10013000019900F0ECFC1FBD10B510BD00F099FD59
:100140001146FFF7F3FF0FB400F00CF80FBC01F0FD
:100150000FFA00F099FA03B4FFF7EEFF03BC00F0CA
:1001600081FD000004B001F0F9FA0448002101F01B
:10017000CBFB01F007FB00F087FA000024330008F6
:1001800080F309887047EFF309807047684680F371
:10019000098806480078C00703D1032080F314883B
:1001A0007047022080F3148870470000E432000892
:1001B000064B9C46EFF305831B0605D1EFF3148332
:1001C000DB0701D000DF704760470000451B0008D7
:1001D000064B9C46EFF305831B0605D1EFF3148312
:1001E000DB0701D000DF704760470000CD1D00082D
:1001F000EFF309808169891E097800292BD1A64671
:100200001FC8A4467446E047EFF3098307C31A4B9F
:1002100006CB91421CD0083B00290DD0EFF309809A
:1002200020388862F0C044464D4656465F46F0C0CE
:100230000CB402F09FF90CBC1A60906A1030F0C840
:10024000A046A946B246BB4680F309882038F0C8CC
:100250000220C043004710B5084A1268914209D8ED
:10026000074C89006458A6461FC8A446F047EFF320
:1002700009840FC410BD000074000020AC0D0008FC
:10028000AC0D000802F056F8104B06CB91421AD084
:10029000083BEFF3098020388862F0C044464D46A1
:1002A00056465F46F0C00CB402F064F90CBC1A600C
:1002B000906A1030F0C8A046A946B246BB4680F30B
:1002C00009882038F0C80220C0430047740000208D
:1002D00002F002FAD8E7000001F0C6FB02F0FCF9D8
:1002E000D2E700000748804707480047FEE7FEE7DF
:1002F000FEE7FEE7FEE7FEE704480549054A064B30
:1003000070470000CD100008B1000008980B0020D5
:10031000980E0020980D0020980D0020FFB593B096
:100320000F4615990891416800918168099100680C
:100330001090099800680D90099841680C918168A7
:100340000B91C1680791016914300A9109900098D6
:10035000169E05684068059000988468C168300062
:1003600036D03C4A904244D8002831DD3E46089FB2
:10037000129001CE06900A9802F088FE0490214661
:10038000079802F083FE039005990B9802F07EFE19
:100390000F9029460C9802F079FE0E9006990D9860
:1003A00002F074FE0E9902F001FE0F9902F0FEFDBC
:1003B000039902F0FBFD049902F0F8FD01C7214604
:1003C000044612980595401E069D12900028D0D133
:1003D000009805600098059A84604260C160103002
:1003E00000901098159F401E08971090A1D117B04B
:1003F000F0BD01CF06900A9802F048FE0E9021460B
:10040000079802F043FE039005990B9802F03EFE18
:10041000049029460C9802F039FE0F9006990D9829
:1004200002F034FE0F9902F0C1FD049902F0BEFD06
:10043000039902F0BBFD0E9902F0B8FD089908601F
:1004400008990595091D08912146069D0446761ECA
:10045000CFD1BDE7FFFFFF7F70B58260016004462A
:100460001D460901184600F035F9656070BD0000B1
:1004700000487047340B00200B30C008C0007047A4
:10048000F8B517460E460446FFF7F6FFA0420546AC
:1004900033D930460C30002F009001D000F0AEFE72
:1004A00074683046002C1DD02168A94216D30A4634
:1004B000294608318A4208D3626861194A60226875
:1004C000521B0A604160256001E061684160002FB5
:1004D00002D0009800F0BAFE201DF8BD20466468E6
:1004E000002CE1D12946304600F0FCFA0028D7D193
:1004F000002F02D0009800F0A9FE0020F8BD10B532
:10050000044600F0E6FA016820460122FFF7B8FF32
:1005100010BDF8B515460F46041F002828D03E46EA
:100520000C36002D02D0304600F068FE394600E05F
:1005300001464868002801D0A042F9D30A68531840
:10054000A34204D123680C46D2180A6000E04C6034
:1005500021680A19824205D1426862600068081861
:10056000206000E06060002D02D0304600F06EFE9A
:10057000F8BD10B5044600F0ACFA0168204601222F
:10058000FFF7C7FF10BDFEB5054610460C461843E1
:1005900073D0AE468C460020AD1A01469C4167D30D
:1005A0006646002701243D46B61A9D4102D31346F4
:1005B0003A462124654676462F04360C3E432D0CE0
:1005C000B61A9D4104D3150C1B042B43120410349E
:1005D000654676462F06360A3E432D0AB61A9D41D9
:1005E00004D3150E1B022B431202083465467646CF
:1005F0002F0736093E432D09B61A9D4104D3150F26
:100600001B012B431201241D65467646AF07B60831
:100610003E43AD08B61A9D4104D3950F9B002B4372
:100620009200A41C65467646EF0776083E436D08A7
:10063000B61A9D411AD392185B41641C16E000184B
:10064000764665464941B71A9D410191009009D30C
:100650006046B11A98418E4684460098019900255B
:10066000401C6941DD0752082A435B08641EE6D539
:100670007246634603B0F0BDFFE700200146C04666
:10068000C0462A462346F5E710B50446C046C04694
:100690002046FFF760FD10BD01E004C0091F0429DA
:1006A000FBD28B0701D50280801CC90700D00270E5
:1006B000704700290BD0C30702D00270401C491EAE
:1006C000022904D3830702D50280801C891EE3E738
:1006D0000022EEE70022DFE7002203098B4273D3FA
:1006E000030A8B4258D3030B8B423CD3030C8B423F
:1006F00021D312E003460B437FD4002243088B42F0
:1007000074D303098B425FD3030A8B4244D3030B98
:100710008B4228D3030C8B420DD3FF22090212BA5D
:10072000030C8B4202D31212090265D0030B8B42D9
:1007300019D300E0090AC30B8B4201D3CB03C01AC3
:100740005241830B8B4201D38B03C01A5241430B9E
:100750008B4201D34B03C01A5241030B8B4201D38E
:100760000B03C01A5241C30A8B4201D3CB02C01AF9
:100770005241830A8B4201D38B02C01A5241430A71
:100780008B4201D34B02C01A5241030A8B4201D360
:100790000B02C01A5241CDD2C3098B4201D3CB0107
:1007A000C01A524183098B4201D38B01C01A5241B6
:1007B00043098B4201D34B01C01A524103098B42BA
:1007C00001D30B01C01A5241C3088B4201D3CB00A5
:1007D000C01A524183088B4201D38B00C01A524188
:1007E00043088B4201D34B00C01A5241411A00D238
:1007F00001465241104670475DE0CA0F00D04942A1
:10080000031000D34042534000229C4603098B4210
:100810002DD3030A8B4212D3FC22890112BA030A98
:100820008B420CD3890192118B4208D3890192111A
:100830008B4204D389013AD0921100E08909C3099F
:100840008B4201D3CB01C01A524183098B4201D3A1
:100850008B01C01A524143098B4201D34B01C01A8C
:10086000524103098B4201D30B01C01A5241C30804
:100870008B4201D3CB00C01A524183088B4201D373
:100880008B00C01A5241D9D243088B4201D34B008E
:10089000C01A5241411A00D20146634652415B10D0
:1008A000104601D34042002B00D5494270476346B1
:1008B0005B1000D3404201B50020C046C04602BDD7
:1008C0007047704770470000F0B5FF252D04C6093A
:1008D000C209FF2704462E400137CB093E4348405A
:1008E0002A402B400746002A6BD0002B69D0AA4231
:1008F00067D0AB4265D0002800DA32460125ED050D
:1009000029432C4309022002090AD21A4B0C7F24E6
:10091000E31A434C000A7C44E35C7D24240412194E
:1009200014145B00A218884201D3521C00E040005E
:1009300049420C465C4324115C43DB016415E31817
:10094000040A5C43C502200D0C4644436419250A81
:100950005D432303EC0C0D46654300030019EB18BF
:100960004C42A34201D35B18401CD4052018002B35
:1009700007D05B00C91804D3401C002901D14008EE
:1009800040003F2189048A4209D3002A08DC11066D
:10099000090F04D0032149074018C00FC007F0BD5C
:1009A00001224100120689187F2252069142F6D296
:1009B00005214907C84201D59010F0BDFF20C005B0
:1009C000F0BD002F00DA32461648AA4207D2AB42E9
:1009D00005D21902090E17D0F80FC007F0BDFF2588
:1009E00063002D06AB42F9D84900A942F6D8AB42C4
:1009F00001D1A942F2D0A94201D1002101E0610058
:100A00004908D0050843F0BD1102090EFBD0FF20B4
:100A10000243D005F0BD0A460146104654E70000E7
:100A20001A2A00000000C07F10B501469E24000273
:100A3000CA15A307002A02D01843002A04DBA21A11
:100A4000002A0CDDD04010BD1206120E01D140006C
:100A50004008A21A03D4D04040420028F3DDFF2210
:100A600048001206904201D9002010BDC817C043AB
:100A7000584010BD1F22030C02D10F2200041CD0CD
:100A8000030E01D10002083A030F01D10001121F29
:100A9000830F01D18000921E002801DB4000521E0E
:100AA000D2055118021251181922904004D3491C42
:100AB000002801D14908490008467047C10FC907FD
:100AC00000D04042012292071143D3E70121890758
:100AD000D0E710B5FFF7CCFC083010BD7047704769
:100AE0007047704738B504460A4600206946C0463C
:100AF000C046002805D002462046009900F072F852
:100B0000012038BD10B5012000F087F810BDF8B500
:100B1000C046C046054600200C461020C04606468A
:100B2000A819A0420DD9324669460020C046C046E9
:100B3000070001D100F071F80098A04200D00546EE
:100B4000C419FFF7C6FFF61D07460560F008C00090
:100B50004619284600F008F8B44204D031463868F7
:100B6000A21B00F03FF8F8BD10B500210160416004
:100B700080600C3000F054FB10BD10207047000066
:100B800010B5FF231B0644009C421DD84C009C421C
:100B90001AD80346124A0B4307D4401A02D3EFF384
:100BA000008010BDEFF3008010BD081A06D2EFF3ED
:100BB000008001219043C907084302E0EFF3008061
:100BC000904380F3008810BD0D231B041A4204D00B
:100BD0001146002000F027F810BD00F03BF810BDD2
:100BE0000000009070B50C4601464368002B03D00E
:100BF000A34201D21846F8E703681B18A34206D0A7
:100C0000E31CD808C000001D031B0446D21A226052
:100C10000022201DFFF77DFC70BD10B500F04EF8DE
:100C200000F046F810BDC80212D54803400F002856
:100C300004D0C803C043012188407047EFF300800F
:100C40000001000903210907084380F30088704769
:100C50000020704710B5024800F058F810BD0000A1
:100C60000000C07F01491820ABBEFEE7260002004D
:100C700070477546FFF7FCFBAE46050069465346D4
:100C8000C008C000854618B020B5FFF735FB60BC32
:100C900000274908B6460026C0C5C0C5C0C5C0C5A6
:100CA000C0C5C0C5C0C5C0C5403D49008D467047E0
:100CB00010B5002801D0FFF7D5FF10BD10B50128F1
:100CC00005D0002103A000F050F8012010BD09A1BB
:100CD000F8E7000053494752544D454D3A204F75AF
:100CE00074206F662068656170206D656D6F727924
:100CF000000000003A2048656170206D656D6F72DC
:100D00007920636F727275707465640010B50C465B
:100D10001107090F092904D00A290AD008290CD182
:100D200004E011460820FFF77EFF06E0510606D5D5
:100D300001E0510601D50120C007214610BDD106B2
:100D400007D501010909CC084907000E0006044334
:100D500009E0410F20024907000A0143200E000666
:100D60001D22D14101430846E7E770B505460C4610
:100D70000A2000E06D1C00F012F8002D06D0287843
:100D80000028F7D102E0641C00F009F8002C02D022
:100D900020780028F7D10A2000F001F870BD08B5CE
:100DA000694608700320ABBE08BD000000000000CB
:100DB00004480168C90604D5016810221143016086
:100DC000FEE770470024014008488168C90703D046
:100DD000816849084900816081680122D207114376
:100DE000816081680029FCDB70470000002401401D
:100DF00010B508483F2181624169022211434161D7
:100E0000102141600C2000F0A7F902210C2000F015
:100E1000AFF910BD0024014010B51048426901210E
:100E20000A4342610E48C2680A43C2600C4A0D4838
:100E3000403202610C4A42610622C26082680B4B5A
:100E40001A43826082680A438260092000F084F9B4
:100E50000221092000F08CF910BD000000100240B2
:100E60000024014000000240700100208A050000BB
:100E70000B484169112292041143416109490868F4
:100E80000C229043001D0860074801680909090108
:100E90000160C16809090901491DC160704700006E
:100EA0000010024000040048001400480648416950
:100EB00001225204114341610920C0060168034A1E
:100EC000114301607047000000100240FF0F000056
:100ED000F0B52B48C16902221143C1618169C21476
:100EE0001143816141699201114341610920C006AA
:100EF0000168244A1140244A89180160016A1122BC
:100F0000120611430162416AD21411434162204822
:100F10001E4EC66282690D21C9020A438261C269FE
:100F200068252A43C261026AFF2311331A43026211
:100F3000174B40335A680124E40322435A60036884
:100F4000212213430360476901231F43476111486E
:100F5000C66286690E438661816929438161016A9F
:100F60001125294301620B4940314D6825434D60ED
:100F7000016811430160416919434161F0BD0000FE
:100F800000100240FF0FC3FF00A02800FF0F000069
:100F9000002C01400004004010B511480168890789
:100FA00015D581684908490081600621C1608168C2
:100FB000012211438160426802210A4342600948CC
:100FC000816209480121806800F082FC10BD01683F
:100FD0000907FBD54168082211434160FEE7000084
:100FE00000000240000400481000002004480121D5
:100FF00082680A4382600268D207F9D07047000015
:101000000024014010B53020FFF779FA044600F0C3
:1010100003F8204610BD000010B5034604460C330B
:10102000034A0221FFF718FA204600F003F810BD2A
:101030003400002010B5044620210C30FFF74AFB95
:101040000020E06210BD000006488169421511438E
:101050008161416B012211434163416B8907FCD5DA
:101060007047000000100240164881690122920575
:1010700011438161144911220A604168416041684D
:10108000416041683D22120491434160416805225C
:10109000D20411434160016801221206114301602C
:1010A00001688901FCD5416889088900416041686F
:1010B00002221143416041680907890F0229FAD1D0
:1010C00070470000001002400020024013480168F1
:1010D0000122114301604168114A114041600168D9
:1010E000104A11400160016801229204914301609D
:1010F00041683F22120491434160C16A0909090114
:10110000C162016BFF22143291430163416B4908B4
:1011100049004163002181607047000000100240D7
:101120000CB8FF08FFFFF6FEF8B5040C8BB226469C
:1011300082B25E430D0C1046370C584336048019BA
:101140000021794116466E43370C360480197941E7
:1011500026466E438919F8BD002805DBC106C90E75
:1011600001208840014908607047000000E100E06C
:101170008307FF22DB0E9A408907090E9940002859
:1011800008DB830809489B001818036893430B4346
:10119000036070470007000F0838830804489B006D
:1011A0001818C36993430B43C361704700E400E020
:1011B00000ED00E010B5002A06DA52005208D21DF8
:1011C000D308DB00102203E0D21C93089B000C2202
:1011D000002B02D09C188C4201D9012010BD82182E
:1011E0008360411802604160C91AD018884202D851
:1011F00010600246F9E70020106010BD80B5054977
:101200000978002904D0054F00680349BC4600DF77
:1012100080BD00006D000020FFFF0000B522000827
:1012200010B5084A03461168082900D3FEE70801F3
:10123000054C491C00191860116000F0C7FF01201F
:1012400010BD000068000020500A002080B504494D
:101250000978002903D0034F0068BC4600DF80BD39
:101260006D000020DD21000805490220886100BFD3
:1012700000BF044881680422114381607047000068
:1012800000040048002401400020164C0246164B82
:1012900081001D4618355A50401C6C500628F6D364
:1012A00012480021C943806900F0DCFA2028F7D1F8
:1012B0000D460026B4000C4F2859395901F03EFF65
:1012C00005D318373959285901F0B6FE01D22859EB
:1012D0003851761C062EEDD304482946806900F06B
:1012E000B1FADDE700F07F45C000002010000020CB
:1012F000FEB50E46074600251448AC000159385982
:1013000001F01CFF1BD2114818380159385901F05F
:1013100093FE11D20D48005900900C4800991838DE
:10132000005901F037FF01903859009901F032FF60
:101330000199FFF7C9FA03E07F20C00500E0002013
:101340006D1C3051062DD7D3FEBD0000D800002003
:1013500088B021480021C943806900F083FA1F4BFF
:1013600002229A61202833D1069169460698FFF738
:10137000BFFF0026354634462046FFF7A7FBA200F4
:1013800069468F58394601F081FE314601F00EFE64
:1013900006463946284601F009FE641C0546062C1F
:1013A000EAD30D4F0699B86900F04CFA0021F869AC
:1013B00000F01EFA04000BD029463046FFF784FAED
:1013C000074901F0E7FE20602146F86900F056FA6F
:1013D000024902208862BCE7100000200004004897
:1013E00000002040002508B51D4E2C460227A00015
:1013F0003058FFF71FFE641C062CF8D30021C943A8
:10140000012000F073FA1748876100241648610034
:10141000405AFFF75BFB0090A000305801230246C2
:101420002C326946FEF77AFF641C062CEED36D1C45
:10143000022D12D10D4C0021A06900F0D9F9010054
:101440000AD0002290003358521CDB6A0B50062A47
:10145000F8D3A06900F012FA002502488762CDE7B0
:10146000F00000200004004870010020100000205F
:101470000EB502468020002A0DD000290BD111782C
:10148000012908D1104601A900F046F8042801D02E
:10149000002000E01020029A019903B000BD70B551
:1014A0000D46040004D0002A02D12078012801D082
:1014B000802070BD204600F047FD002805D0294659
:1014C000204600F04FF8002070BD812070BD70B53F
:1014D0000C4601F01FF90121C907002801D0220C98
:1014E00001D0084670BD058BC178A0B200F002F8AB
:1014F000284670BD0A4601469000064A10B580187D
:101500008038C06F002803D000F05CFF00F04AFF75
:1015100010BD00009407002010B504468089002803
:101520001FD0608980000019006908606068002889
:1015300008D06078022805D10021204600F042FF43
:1015400000F030FF72B6A089401EA08162B66089AB
:10155000401C80B26081E189884201D10020608115
:10156000042010BD10B500F02DFF00F01BFF10BDD2
:1015700070B5002201211F4800F010FA1E4D2862AC
:1015800000F0ECF8FFF770FDFFF772FCFFF75CFD71
:10159000FFF71AFCFFF78AFCFFF728FDFFF728FC8E
:1015A000FFF73AFCFFF794FC0024144EFFF72AFDE6
:1015B000A100641CE4B27050062CF7D30D48002142
:1015C000083000F0A1F9686000F0C4F9286009480B
:1015D0000021583000F01CF9A86106480021643051
:1015E00000F016F9E86100F0CDF8286800F0C0F9C5
:1015F000002070BD6432000810000020F0000020C0
:101600001B4F1C4EFF2438698007800FA0422AD050
:1016100038698507AD0F0A2000F092F83869800715
:10162000800FA8421FD12006000E18D0012802D03A
:10163000022814D107E0306A00F0D8F9B06800F051
:1016400097F9706909E0306A00F0D0F9B06800F0ED
:101650008FF9F06800F08CF9306900F089F92C46B8
:10166000284600F009F8642000F06AF8CBE7000093
:101670000014004810000020F8B500281AD02B4CA8
:1016800001281AD0022814D10021294800F03CF981
:10169000206127480021103800F036F9E060244826
:1016A0000021203800F030F9A0600221206A00F00B
:1016B0008FF9F8BD01F0D6F9F8BD1D48002130388A
:1016C00000F022F960611A480021203800F01CF96E
:1016D000A0600221206A00F07BF9FF20F53000F0C5
:1016E0002FF8154D134C6C630326B602AE63134FEF
:1016F000FE63BC637D2000F023F801F0B3F9C8203D
:1017000000F01EF86E63AC63FC63BE63BC2000F0A7
:1017100017F801F0A7F9C82000F012F86C63AE6367
:10172000FE63BC637D2000F00BF8C3E710000020CF
:10173000AC320008FF0F000000040040002C014004
:1017400080B5EFF30581002901D0822080BD024FD2
:10175000BC4600DF80BD0000812A000880B5EFF3A1
:101760000580002801D0822080BDEFF31480C007DF
:1017700003D0034FBC4600DF80BD01F08BF980BD74
:10178000952A000880B588B0EFF30580002802D0C4
:10179000822008B080BDEFF3148081071248890FC2
:1017A00006D001291AD0022910D0032918D112E03D
:1017B00008A981F309880078C0070AD0022080F3C5
:1017C0001488BFF34F8FBFF36F8F09E00078C00715
:1017D00006D10320F3E70078C00701D0FF20D8E747
:1017E000024FBC4600DFD4E7E43200080D2B0008AE
:1017F00080B5EFF30582002A03D0012201F042FBFD
:1018000080BD024F0022BC4600DF80BD852E00084F
:1018100080B5EFF30582002A01D0002080BDEFF3F0
:101820001482D20703D1054A5278002A03D0044F0C
:10183000BC4600DF80BD01F08FF980BD6C00002048
:10184000592B000880B5EFF30582002A03D001224E
:1018500001F04AFB80BD024F0022BC4600DF80BD84
:10186000E92E000810B5002806D0006800F014F832
:10187000102800D1202010BD802010BD10B50028F8
:1018800006D0002906D00068002200F013F810BD31
:10189000802010BD862010BD80B5EFF30582002AA0
:1018A00002D0FFF7E5FD80BD014FBC4600DF80BDE3
:1018B000D12B000880B5EFF30583002B02D0FFF792
:1018C000EEFD80BD014FBC4600DF80BD0D2C000841
:1018D00080B5EFF30582002A02D0FFF7F8FD80BD46
:1018E000014FBC4600DF80BD452C000880B5EFF3FA
:1018F0000583002B01D0822080BD024FBC4600DF53
:1019000080BD00006D2C000880B5EFF30582002A31
:1019100001D0002080BDEFF31482D20703D1054A25
:101920005278002A03D0044FBC4600DF80BD01F08E
:10193000CBF980BD6C000020C92C0008034FBC46C9
:1019400000DF034FBC4600DFFEE700003D2D00082E
:10195000592D000880B5EFF30580002801D0002044
:1019600080BD024FBC4600DF80BD00003D2D000859
:1019700080B5EFF30581002901D0822080BD024FA0
:10198000BC4600DF80BD0000592D000880B5024F25
:10199000BC4600DF80BD0000952D000880B5EFF348
:1019A0000583002B01D0002080BDEFF31483DB07FB
:1019B00003D1054B5B78002B03D0044FBC4600DFFE
:1019C00080BD01F0F5F980BD6C000020B12D00084C
:1019D00080B5EFF30582002A01D0822080BD024F3E
:1019E000BC4600DF80BD0000F12D000880B5EFF39C
:1019F0000581002901D0822080BD024FBC4600DF56
:101A000080BD00005D2E00080025094CED432946ED
:101A10002068FFF741FF02460846102AF7D1FFF77A
:101A2000B5FF0028F3D0024608469047EFE70000D4
:101A300064000020FEE720BFFDE7000007480168C2
:101A40000748416100218161072101610548016A60
:101A5000FF2212061143016240177047E03200086E
:101A600000E000E000ED00E070470000892088B051
:101A7000C00502908520C0050590212040060490F5
:101A800000202B4F009001902A480021C943C069D3
:101A9000FFF7E8FE284B02229A61202843D10C6808
:101AA000800644400D462146029801F0EFFA069068
:101AB0002146009801F07AFA2049039001F0E6FAF5
:101AC000B84204D21E49884201DA039800901B49AB
:101AD000059801F0DBFA009901F0D8FA069901F0B7
:101AE00065FA06462046019901F054FB019013491E
:101AF0000498FEF7E9FE019901F0C8FA314601F0B9
:101B000055FA0F49884201DD084602E0B84200D983
:101B10003846FEF789FF00F075FF06480194294614
:101B2000C069FFF78FFE044902208862ACE700001D
:101B300000C03FC410000020000400486F12833B27
:101B400000C03F440146EFF31080C207D20F72B6C7
:101B50000868002801D003680B60002A00D162B633
:101B6000704710B500280ED000290CD00B318A0820
:101B70009200016844680B1A1B1B934205D2084669
:101B800009680029F5D1002010BD210007D02118D7
:101B900003680B604A6001600846083010BD42606F
:101BA000083010BD70B50D4600280FD00849094C0B
:101BB000884204D222680146104600F023FC2068C7
:101BC0004570054800F02DF900F0E8FC70BD0000FC
:101BD000FFFF000074000020040B002010B50E4829
:101BE0000C4942680D480B680068934204D00A60B3
:101BF000CB88421E9A188A808A8880B2824208D195
:101C000000200860044800F00CF90146024800F08A
:101C100021FC10BD88000020040B0020840000205F
:101C200070B51A4DE86800282FD0A88A401EA882F7
:101C3000002624E0A068002808D061684160606840
:101C4000002802D0A16881606660A6600F48214626
:101C5000183800F0FFFBA08AA8826078042804D11D
:101C60000B49E08A09884018A08201206070E06872
:101C7000E860E068002801D00561E6602661A88A76
:101C8000002802D1EC68002CD4D170BD1C0B0020C0
:101C90008400002070B504000ED00C4DA178286897
:101CA0000126827891420BD900F0F2FB2868467039
:101CB000204600F073FC70BD054800F0B2F8F8E76C
:101CC00066702146024800F0C5FB70BD740000201C
:101CD000040B002010B50321FFF764FF10BD0000C6
:101CE00010B50446008B084320836278618B062A76
:101CF00017D0052A14D1084212D00A460240628346
:101D000088432083204600F0ECFB01206070628B4A
:101D10000821204600F0E1FB2146044800F09AFB30
:101D200010BD0A468243EBD010BD0000040B00201A
:101D300002468800144910B540188038C46F002C42
:101D40001CD0208B104320836278618B062A16D02A
:101D5000052A13D1084211D00A4602406283884303
:101D60002083204600F0BDFB01206070628B0821BB
:101D7000204600F0B2FB2046FFF78CFF10BD0A465C
:101D80008243ECD010BD00009407002070B50346DC
:101D90000D480D460468002A208B08D0194681435F
:101DA00001D0062109E098432083022070BD01463E
:101DB000194001D06183F6E7052163832846FFF7C8
:101DC000F1FE012070BD000074000020814202D3AA
:101DD00042688A4201D801207047EFF31082D2078F
:101DE000D20F72B603680B60016000D162B60020AA
:101DF0007047002810D000290ED00022083903E0D7
:101E000002460068002807D08842F9D1002A05D090
:101E10000068106000207047012070470021416079
:101E2000F8E70146406842684A600B780022022BBE
:101E300005D0012B03D0032B01D0426070474368CB
:101E4000002B01D09960426082607047810700D00A
:101E50000020704770B5044615460020207001220E
:101E600062702246A170203211716060A060E06053
:101E700020612062A082E082208360835071E08C28
:101E8000002803D10448FFF75DFEE06229462046A2
:101E900000F01EF870BD000008030020002801D0EB
:101EA000082901D2012070474118091F0022016052
:101EB0000A604260104670470348002101600349F0
:101EC0000988C1807047000088000020DC320008CB
:101ED000F0B5C28C194D930802D12A881204930CD4
:101EE000C26A9C001219540700D5121F012424064F
:101EF000403AD463002491632646A700641CD6515F
:101F00000E2CFAD3C4691462826201632968C90085
:101F10000FD5112B0DD9103B5908094B02E0083A97
:101F200053601360491EFAD1C16A121F8A4200D958
:101F30001360C06A03490160F0BD0000D832000898
:101F4000CCCCCCCCA52E5AE2C1898089081A704726
:101F5000012202700022427082704260028142813E
:101F60008281034A89038918090CC18170470000E6
:101F70000000FCFFF8B50446406800270D46002825
:101F800044D060780126012837D0022813D00328D6
:101F900032D10846FFF7D6FD05002DD02046FFF7C9
:101FA00040FF0446294600F095FA6670204600F08E
:101FB00098FA21461DE02046FFF733FF0546002131
:101FC00000F088FA2189E86989000919086172B668
:101FD000A089401CA08162B62089401C80B220816B
:101FE000E189884200D127816E70284600F079FA95
:101FF0002946134800F02EFAF8BD2046FFF711FFDE
:1020000004462A46102100F068FACEE7A089E1894B
:10201000884211D2208980000019056172B6A0891A
:10202000401CA08162B62089401C80B22081E189D9
:102030008842E1D12781F8BD0320FFF7FBFCF8BD02
:10204000040B002070B5436816460D46002B02D0E5
:10205000417801290DD08189C4890022A14226D16D
:10206000002E14D01B4C002B216812D000F0F2F986
:1020700016E0FFF7D6FE04462A46102100F02DFA9E
:10208000204600F02EFA2046FFF704FE20E0012053
:1020900070BD416021684A602168886002214170FA
:1020A00020680821C5613046FFF77CFDEFE7018914
:1020B000890009180D6172B68189491C818162B657
:1020C0000189491C89B20181C389994200D10281E9
:1020D000002070BD7400002070B504468089002681
:1020E0001546002834D06089800000190069086016
:1020F0006089401C80B26081E189884200D166819C
:102100006068002802D06078022806D072B6A089E4
:10211000401EA08162B6002070BD2046FFF781FE00
:102120000546002100F0D6F92189E86989000919DE
:1021300008612089401C80B22081E189884200D159
:102140002681284600F0CDF92846FFF7A3FDE2E7F7
:10215000002D08D00B4862680168002A05D020468F
:1021600000F078F908E0012070BD616001684E6000
:10217000006884600120607008212846FFF712FD86
:10218000F1E700007400002010B5002812D0411CB7
:1021900011D00B490B4C88420BD87D21C900484314
:1021A00009490A6880181146401EFEF795FAA042B8
:1021B00004D9204610BD0348401C10BD80B210BD9C
:1021C00000093D00FEFF0000F0320008032101700D
:1021D0000021418041608160C1607047F8B50446CC
:1021E0004088002804D0314DA1682A68914201D06E
:1021F000FF20F8BD401E0004000C608053D1296808
:10220000086AA04209D1E068086208E0C268A242F8
:1022100002D1E268C26002E010460028F6D1242014
:10222000405C0A6A07E05368002B03D09B78834226
:1022300000D91846D268002AF5D188706168012655
:10224000002922D02046FFF7ECFD0746002100F0D0
:1022500041F9384600F045F96680A760386AE060C9
:102260003C621348296840688A788078824201D3AA
:10227000384616E00E4800F0EDF839460C4800F0FC
:10228000E9F8286846707E700AE0094949688A784A
:102290002968824207D9064800F0DCF828684670B1
:1022A0000020FFF7F7FC0020F8BD000074000020BC
:1022B000040B002070B50E461C4D0446418828686A
:1022C000002907D0A26882420FD11948814208D163
:1022D000FF2070BDA060016AE1600462012060809F
:1022E00001E0491C6180002070BD002E0FD0917864
:1022F0008078814203D29070A06800F0D3F86068C3
:10230000002806D02046296800F0A4F808E0012043
:1023100070BD286860602968002048602868846073
:1023200009213046FFF73EFCF1E700007400002071
:10233000FFFF000070B51848012102685170006865
:1023400000F0A6F8154C657813E0E800011948681C
:102350000278002A17D0012A1AD000F0F1F8E078AC
:102360006D1C854200D1002572B6A078401EA07079
:1023700062B6A0780028E8D165700948FFF751FDE2
:1023800000F00CF970BD098989B2FFF7A9FCE6E7F6
:102390008968FFF7EFFDE2E77400002010070020D6
:1023A000040B002005480178002902D0012141706A
:1023B0007047012002490007486070477C000020F8
:1023C00000ED00E070B50E4BDD789C1C1E4672B629
:1023D0009A78AA4207D2521C22703278541CAC421E
:1023E00000D10024347062B6DC78944204D9D20063
:1023F000D2189160506070BD0220FFF71BFB70BDCA
:102400001007002010B5124AD368002B17D01346CE
:102410009B8A04E0002C12D02246A48AE318D468D8
:102420008B42F7D3C460D0600261C468002C00D036
:102430002061591A8182908A401A908210BD00242E
:10244000C460D060C91A02619182848210BD00000C
:102450001C0B002030B502780023022A03D0012A89
:1024600001D0032A00D101238C7800E01046426895
:10247000002A02D09578A542F8D24A604160002B2C
:1024800004D0002A00D09160886030BD0020FBE7B6
:1024900003494A6842600022826048607047000039
:1024A000040B002010B583680446002B05D160782A
:1024B00001280CD1064B03E09B6818780028FBD05C
:1024C000204600F023F821461846FFF7C3FF10BD51
:1024D000040B0020806A01627047806A42620162D8
:1024E000704710B5016900290FD0C268CA60C3687F
:1024F0000022002B07D08B8A848A1B198B82C36829
:102500001961C26000E08A82026110BD8168002901
:1025100007D042684A604168002901D0806888601D
:102520007047064906E04A68824202D14068486026
:10253000704711460029F6D170470000040B0020B7
:1025400010B5416800290FD0FFF76BFC0446FFF778
:10255000C8FF0120607001462046FFF7BBFF2146FF
:102560000348FFF777FF10BD4188491C418010BD2B
:10257000040B002010B507480068816AC06A8142D8
:1025800003D300680449884202D00120FFF752FAC1
:1025900010BD000074000020A52E5AE202494860D8
:1025A00002214170704700007400002070B50020C7
:1025B00004462049204A02E08300CC50401C138886
:1025C0009842F9D31D48342201881D48FEF7F2FDD8
:1025D0001C4801210088C90780B242181A480168C6
:1025E0001A48FEF7E7FD1A480822018819480068D2
:1025F000FEF7E0FD184DFF20E870EC84174A00213B
:102600002846FFF727FC164804210170446015484E
:102610000170C4600461848213481549056002207A
:1026200068701248047044700978C170FFF744FC68
:1026300070BD000094070020D4320008F832000872
:1026400090010020D8320008FC3200080803002066
:10265000203300085C000020D00A0020371A000850
:10266000040B00201C0B0020740000201007002029
:102670000433000810B51448016AFF221204114304
:102680000162C169026A5202920E92061143C1614F
:10269000FFF7D4F90D490028086013DB82080C49C4
:1026A000920051180A688307DC0EFF23A3401A43E7
:1026B0000A60C206D20E012191404009054A8000FD
:1026C0008018016010BD000000ED00E080000020D7
:1026D00000E400E000E100E010B50B4801210268D1
:1026E00051700068FFF7D4FEFFF778FA07480168D9
:1026F000491C0160FFF794FA00F02CFC0448FFF736
:1027000090FBFFF74BFF10BD7400002084000020F9
:10271000040B0020002805D0810702D10178002990
:1027200000D000207047000030B50C4C00236268D8
:1027300005E095688D4204D813461268491B002AAB
:10274000F7D102608160002A02D09568691A916011
:10275000002B01D0186030BD606030BD6C000020DF
:102760000F4B0022596803E0814204D00A460968F1
:102770000029F9D106E0002904D00168002A04D01C
:10278000116003E00020C0437047596001680029D0
:1027900003D08A68806810188860002070470000A5
:1027A0006C000020FFB5080681B01E4617460D4696
:1027B000000E00D14D1C1648FFF7C4F9041E18D0B6
:1027C0002802000CE762E084E661E9B22046019A43
:1027D000FFF740FB01250F480F4906E0AA00121839
:1027E000803AD26F002A06D06D1C0A889542F5D92E
:1027F000002005B0F0BD002DFAD0A90008188038DF
:10280000C467E5702046FFF745FA2846F1E7000067
:102810009001002094070020D4320008F8B54F4DF5
:1028200000262968002802D0CA7882423ED14E7024
:10283000FDF7A9FC29688862FFF79CFE2868046AF6
:1028400020E06068002818D02046FFF7EAFA074623
:102850000021FFF73FFE3846FFF743FE0120787066
:1028600039463F48FFF7F6FD0120E1686080A76028
:10287000386AE0603C620C4604E0E0686680A6606E
:10288000E6600446002CDCD12868C1788A0035490E
:1028900051188039CE67C16A3348FFF797FA296823
:1028A0003248CE62FFF792FA2E6051E03049098833
:1028B00088420FD881002B48081880380090C56FD7
:1028C000002D07D02846FFF721FE2846FFF709FE16
:1028D0002C6A22E0FF20F8BD6068002818D020464E
:1028E000FFF79FFA07460021FFF7F4FD3846FFF790
:1028F000F8FD0120787039461948FFF7ABFD01203B
:10290000E1686080A760386AE0603C620C4604E0E1
:10291000E0686680A660E6600446002CDCD1009882
:10292000C6671148E96AFFF751FA29460F48EE6277
:10293000FFF74CFA0A4840688178084802689378A3
:10294000994208D90121517001680548FFF782FDBD
:102950000020FFF79FF90020F8BD00007400002060
:10296000040B0020940700200803002090010020A1
:10297000D432000870B51B4D002811D01A4A1288B5
:10298000904220D88200194810188038C46F002C5B
:1029900019D0A170242001552868A04205D014E068
:1029A000286881702868203001711148406880785B
:1029B000884215D90E482968FFF74CFD2968012087
:1029C000487000200AE0FF2070BD2046FFF76AFD36
:1029D0006078012804D10648FFF723FAFFF75AF977
:1029E000002070BD74000020D4320008940700203D
:1029F000040B002002480068002800D0C07870470F
:102A000074000020F0B51349134D0A1F2E1D002835
:102A100002DD2C46334604E00C461346404229466C
:102A200032460D2636020D4DB04203DD4000801BBC
:102A3000002700E0371A1F602560094B984205D92E
:102A40005B42C0181560281A0860F0BD801910603C
:102A50000D60F0BD38040040382C0140FF0F00002D
:102A6000FF02000004490348486388630349C863C0
:102A700088637047FF0F000000040040002C0140F5
:102A800010B5002804D0FFF77FFBFFF723F94020A3
:102A900010BD000010B5154C207800280DD1144849
:102AA000400706D1134801681148FFF7F7F90028DD
:102AB00001D0852010BDFFF779FD0F49FF2009687F
:102AC0008870207800280BD100210C4800F06BF8AA
:102AD0000B49086000210B4800F0F6F80A4908602D
:102AE000012020700020607010BD00006C000020EC
:102AF000C8030020003300087400002018330008C9
:102B000064000020083300086000002070B5104DFC
:102B10006878002801D0002070BD0E4C206820305D
:102B200001790020FFF726FF2068C178FF2903D133
:102B3000816A203181F309886168002902D16060CF
:102B400000202060FFF796FD01206870E3E7000099
:102B50006C0000207400002070B5040011D02168C2
:102B600000290ED06268002A0BD0A068002808D087
:102B700005684068002804D0002D02D02B78002B77
:102B800001D0002070BDD21C9208920051430C313C
:102B9000FEF710FB20888000103081B22846FFF736
:102BA000D7F9A06870BD10B5040008D021680029CD
:102BB00005D06068002802D00278002A01D00020E9
:102BC00010BD8900103189B2FFF7C2F9606810BDED
:102BD0003EB5044680200D46002C13D021780129F3
:102BE00010D12846FFF7D0FA0246204601A9FFF788
:102BF00073FA012801D0102004E0002D01D04020FC
:102C000000E00020029A019903B030BD70B50E4675
:102C10000400154602D02078012801D0802070BD24
:102C20001046FFF7B1FA024631462046FFF70AFA8E
:102C3000012801D0002070BD002D01D0C12070BD41
:102C4000812070BD70B50C46FFF764FD0121C907F6
:102C5000002801D0220C01D0084670BD058BC17838
:102C6000A0B2FFF765F8284670BD000070B50446B5
:102C70000E46000C01D086201FE0002C084605D02F
:102C8000FFF782FA0146A0B2012204E0FFF77CFAC6
:102C9000014600220A48FFF779F8022803D0002EE7
:102CA00009D0402008E00820002C02D1054909681D
:102CB0004C8B214601E0002000212A4670BD000017
:102CC000FFFF00007400002070B50E4604002CD0F9
:102CD0002068002829D06068C11C26DB032824DC7A
:102CE000E168002905D01248FEF73BFF051E15D00C
:102CF00000E00025E06861680002091D01433346D9
:102D00002A462068FFF74EFD002808D009498000B8
:102D100040188038C06F0849826A516370BD002D29
:102D200003D029460248FFF764F8002070BD000078
:102D3000C8030020940700203D19000810B5FFF7D4
:102D400059FE002804D00349800040188038C06F25
:102D500010BD00009407002010B5FFF7DBFC002831
:102D600004D0C18C002903D0C46A02E0802010BDC9
:102D70000024C078FFF752FDFF2807D0002C03D0B5
:102D800021460348FFF735F8002010BD812010BD13
:102D9000C803002010B5FFF759F8002805D0416995
:102DA000026909680846114610BD0020014610BDA1
:102DB00010B5030010D0186800280DD058680028FE
:102DC0000BD0002901D0012906D1084C2468002C21
:102DD00002D00479002C01D0002010BD0024046032
:102DE0000124047141714361026110BD6000002043
:102DF00070B50D46FFF72AF8040019D0002D19D040
:102E00007D212846C900FEF78FF9134B00221D686B
:102E1000561E6D1E7241401951411A680023FDF77C
:102E2000B2FB0546207901280DD0022809D103E024
:102E3000802070BD862070BD2046FFF791FC0028E1
:102E400004D0812070BD02202071E5602946204613
:102E5000FFF76AFC002070BDF032000810B5FEF7E5
:102E6000F5FF002803D00179022908D101E0802074
:102E700010BD01210171FFF773FC0028F8D08120FB
:102E800010BD000070B50D4600280AD004684068E7
:102E9000002805D0002C03D0002A03D0002D01D03B
:102EA000002070BDFEF74EFE060018D1002D16D092
:102EB00061680C480029016803D02046FFF7CAFA70
:102EC00007E06160026800215160006884600320AF
:102ED00060702846FFF758F90821FEF763FE304678
:102EE00070BD00007400002070B5164600280BD09D
:102EF00030C8002C08D0002D06D02846FEF766FF0B
:102F0000002803D0862070BD802070BD6068002836
:102F10001DD0607803281AD1002E06D029462046FD
:102F2000FFF750FAFFF73EFA11E02846FEF70AFED7
:102F300005000CD02046FEF774FF04462946FFF733
:102F4000C9FA2046FFF7CDFA2046FEF7A3FE00207F
:102F500070BD0000F8B5134E7468002C1BD0A0683B
:102F6000114F401EA06013E02546246874600022C3
:102F700029463868FEF793FA002802D00420FEF7AD
:102F800059FD6879012807D001202871002C02D052
:102F9000A0680028E8D0F8BD2846E968FFF7C4FB20
:102FA000F4E700006C0000206400002070B50125EB
:102FB0000400ED074C4020D4441A01D2001B09192B
:102FC000C60D4B00F2B2FF2A29D01B0E2CD00002F6
:102FD0000C02D31A2C43DC402843051910D2280ACE
:102FE00002D3401C6D0611D0761EF6058019FF2A0B
:102FF00000DA70BDC00DC00570BD694000F0D0F8AA
:1030000001200543C541521C761CE8E764089C403A
:10301000C90161408900E7D10124A043E4E71B0E08
:10302000440200D0034870BD002AFCD1C00FC00785
:1030300070BD00BF0000C07F01230200DB050A4312
:103040000DD4DA4203D49A4207D488427047D8425A
:1030500014D4D94212D48842704780427047DA4271
:1030600003D59A42F9D5814270475B004200DA42AB
:1030700004D24A00DA4201D28142704710B5024AB6
:10308000FDF77EFD10BD00BF0900160470B54200BB
:1030900064414B005C41120E39D01B0E38D0FF2A20
:1030A0003CD0FF2B3AD040024902400A490A0600B0
:1030B00045184E43000A090AD2184843ED017F3AE9
:1030C0000104731A4019190C4318990F04D00121F7
:1030D0005B0849075B1A521CD80904D3401CF5034E
:1030E00001D19D0607D0FF2A08D2D50506D0E407F6
:1030F0002043401970BD0125A843F4E7002A01DCF4
:10310000E00770BD2402FF202043C00570BD1B0EE8
:10311000FF2A03D0FF2B01D0E00770BDFF2645003A
:103120003606B54206D84D00B54203D8D218FF2A5C
:1031300000D0E7E7004870BD0000C07F01230A000F
:10314000DB0502430DD4DA4203D49A4207D481420C
:103150007047D94214D4D84212D481427047894270
:103160007047DA4203D59A42F9D5884270475B002E
:103170004A00DA4204D24200DA4201D28842704761
:103180004840414010B5024A4840FDF7F9FC10BDE7
:103190000900160470B501250400ED074C4022D447
:1031A000441A02D26C40001B0919C60D4B00F2B242
:1031B000FF2A4BD01B0E50D000020C02D31A2C4316
:1031C000DC40A843051B05D5AD0019D36D08761E5C
:1031D000521E37D0F605280A01D2801970BD704101
:1031E0006D0603D070BD6940FFF7E6FE9C40090202
:1031F0006140490001D0401E70BD0124A04370BD54
:103200006D081DD001202B0C01D12D0410302B0E88
:1032100001D12D0208302B0F01D12D01001DAB0F64
:1032200001D1AD00801CEB0F01D16D00401C6D0081
:10323000361A121A680AF5054019012A02DB70BD18
:10324000002070BDC036300AC00770BD1B0E44029E
:1032500001D1FF2B00D1024870BD002AF0D070BD13
:103260000000C07F69120008580100200116000804
:10327000FEFFFFFF0100000090000000891200081F
:10328000010000000100000000000000E51300083C
:10329000020000000100000090000000511300082F
:1032A0000100000001000000900000006D1A0008FD
:1032B000010000000100000090000000020000007A
:1032C00018000000000000200200000004000000C0
:1032D000080000200700000058000611050001004A
:1032E0007FBB00000100000002000100520004004A
:1032F000E80300000000000078010000C0000000AA
:103300004803000010000000091A00080300000034
:103310000100000050000000010000007C010020BE
:10332000000000007115000800000000010000000E
:10333000780000008182838485868788898B8C8DC4
:103340008E8F919293959697999A9C9D9FA0A2A3F8
:10335000A5A7A8AAACAEB0B2B3B5B7B9BCBEC0C23F
:10336000C5C7C9CCCED1D4D7D9DCDFE2E6E9ECF0D1
:10337000F3F7FAFE943300080000002090000000EC
:10338000F40000082434000890000020080E00001B
:10339000100100089000002008010020A800002073
:1033A00044010020000000000000000000000000B8
:1033B000000000000000000000000000000000000D
:1033C000000000000000000086159E3D86151E3E90
:1033D00086159E3D8338863FB59F97BE0000803D91
:1033E0000000003E0000803DB113A93F2BFB21BF30
:1033F00000000000000000000000000000000000CD
:1034000000000000000000000000000000000000BC
:1034100000000000000000000000000000000000AC
:0434200000000000A8
:04000005080002E508
:00000001FF
